{
  "contractName": "ERLCSwap",
  "abi": [
    {
      "inputs": [
        {
          "internalType": "address",
          "name": "underlyingtoken",
          "type": "address"
        },
        {
          "internalType": "string",
          "name": "name",
          "type": "string"
        },
        {
          "internalType": "string",
          "name": "symbol",
          "type": "string"
        },
        {
          "internalType": "uint256",
          "name": "softcap",
          "type": "uint256"
        },
        {
          "internalType": "address[]",
          "name": "admins",
          "type": "address[]"
        },
        {
          "internalType": "address[]",
          "name": "kycadmins",
          "type": "address[]"
        }
      ],
      "stateMutability": "nonpayable",
      "type": "constructor"
    },
    {
      "anonymous": false,
      "inputs": [
        {
          "indexed": true,
          "internalType": "address",
          "name": "owner",
          "type": "address"
        },
        {
          "indexed": true,
          "internalType": "address",
          "name": "spender",
          "type": "address"
        },
        {
          "indexed": false,
          "internalType": "uint256",
          "name": "value",
          "type": "uint256"
        }
      ],
      "name": "Approval",
      "type": "event"
    },
    {
      "anonymous": false,
      "inputs": [
        {
          "indexed": true,
          "internalType": "bytes32",
          "name": "role",
          "type": "bytes32"
        },
        {
          "indexed": true,
          "internalType": "bytes32",
          "name": "previousAdminRole",
          "type": "bytes32"
        },
        {
          "indexed": true,
          "internalType": "bytes32",
          "name": "newAdminRole",
          "type": "bytes32"
        }
      ],
      "name": "RoleAdminChanged",
      "type": "event"
    },
    {
      "anonymous": false,
      "inputs": [
        {
          "indexed": true,
          "internalType": "bytes32",
          "name": "role",
          "type": "bytes32"
        },
        {
          "indexed": true,
          "internalType": "address",
          "name": "account",
          "type": "address"
        },
        {
          "indexed": true,
          "internalType": "address",
          "name": "sender",
          "type": "address"
        }
      ],
      "name": "RoleGranted",
      "type": "event"
    },
    {
      "anonymous": false,
      "inputs": [
        {
          "indexed": true,
          "internalType": "bytes32",
          "name": "role",
          "type": "bytes32"
        },
        {
          "indexed": true,
          "internalType": "address",
          "name": "account",
          "type": "address"
        },
        {
          "indexed": true,
          "internalType": "address",
          "name": "sender",
          "type": "address"
        }
      ],
      "name": "RoleRevoked",
      "type": "event"
    },
    {
      "anonymous": false,
      "inputs": [
        {
          "indexed": false,
          "internalType": "uint256",
          "name": "id",
          "type": "uint256"
        }
      ],
      "name": "Snapshot",
      "type": "event"
    },
    {
      "anonymous": false,
      "inputs": [],
      "name": "SoftCapReached",
      "type": "event"
    },
    {
      "anonymous": false,
      "inputs": [
        {
          "indexed": true,
          "internalType": "address",
          "name": "from",
          "type": "address"
        },
        {
          "indexed": true,
          "internalType": "address",
          "name": "to",
          "type": "address"
        },
        {
          "indexed": false,
          "internalType": "uint256",
          "name": "value",
          "type": "uint256"
        }
      ],
      "name": "Transfer",
      "type": "event"
    },
    {
      "inputs": [],
      "name": "DEFAULT_ADMIN_ROLE",
      "outputs": [
        {
          "internalType": "bytes32",
          "name": "",
          "type": "bytes32"
        }
      ],
      "stateMutability": "view",
      "type": "function",
      "constant": true
    },
    {
      "inputs": [],
      "name": "KYC_ADMIN_ROLE",
      "outputs": [
        {
          "internalType": "bytes32",
          "name": "",
          "type": "bytes32"
        }
      ],
      "stateMutability": "view",
      "type": "function",
      "constant": true
    },
    {
      "inputs": [],
      "name": "KYC_MEMBER_ROLE",
      "outputs": [
        {
          "internalType": "bytes32",
          "name": "",
          "type": "bytes32"
        }
      ],
      "stateMutability": "view",
      "type": "function",
      "constant": true
    },
    {
      "inputs": [
        {
          "internalType": "address",
          "name": "owner",
          "type": "address"
        },
        {
          "internalType": "address",
          "name": "spender",
          "type": "address"
        }
      ],
      "name": "allowance",
      "outputs": [
        {
          "internalType": "uint256",
          "name": "",
          "type": "uint256"
        }
      ],
      "stateMutability": "view",
      "type": "function",
      "constant": true
    },
    {
      "inputs": [
        {
          "internalType": "address",
          "name": "spender",
          "type": "address"
        },
        {
          "internalType": "uint256",
          "name": "amount",
          "type": "uint256"
        }
      ],
      "name": "approve",
      "outputs": [
        {
          "internalType": "bool",
          "name": "",
          "type": "bool"
        }
      ],
      "stateMutability": "nonpayable",
      "type": "function"
    },
    {
      "inputs": [
        {
          "internalType": "address",
          "name": "spender",
          "type": "address"
        },
        {
          "internalType": "uint256",
          "name": "amount",
          "type": "uint256"
        },
        {
          "internalType": "bytes",
          "name": "extraData",
          "type": "bytes"
        }
      ],
      "name": "approveAndCall",
      "outputs": [
        {
          "internalType": "bool",
          "name": "",
          "type": "bool"
        }
      ],
      "stateMutability": "nonpayable",
      "type": "function"
    },
    {
      "inputs": [
        {
          "internalType": "address",
          "name": "account",
          "type": "address"
        }
      ],
      "name": "balanceOf",
      "outputs": [
        {
          "internalType": "uint256",
          "name": "",
          "type": "uint256"
        }
      ],
      "stateMutability": "view",
      "type": "function",
      "constant": true
    },
    {
      "inputs": [
        {
          "internalType": "address",
          "name": "account",
          "type": "address"
        },
        {
          "internalType": "uint256",
          "name": "snapshotId",
          "type": "uint256"
        }
      ],
      "name": "balanceOfAt",
      "outputs": [
        {
          "internalType": "uint256",
          "name": "",
          "type": "uint256"
        }
      ],
      "stateMutability": "view",
      "type": "function",
      "constant": true
    },
    {
      "inputs": [],
      "name": "decimals",
      "outputs": [
        {
          "internalType": "uint8",
          "name": "",
          "type": "uint8"
        }
      ],
      "stateMutability": "view",
      "type": "function",
      "constant": true
    },
    {
      "inputs": [
        {
          "internalType": "address",
          "name": "spender",
          "type": "address"
        },
        {
          "internalType": "uint256",
          "name": "subtractedValue",
          "type": "uint256"
        }
      ],
      "name": "decreaseAllowance",
      "outputs": [
        {
          "internalType": "bool",
          "name": "",
          "type": "bool"
        }
      ],
      "stateMutability": "nonpayable",
      "type": "function"
    },
    {
      "inputs": [
        {
          "internalType": "address",
          "name": "from",
          "type": "address"
        },
        {
          "internalType": "address",
          "name": "to",
          "type": "address"
        },
        {
          "internalType": "uint256",
          "name": "",
          "type": "uint256"
        }
      ],
      "name": "detectTransferRestriction",
      "outputs": [
        {
          "internalType": "uint8",
          "name": "",
          "type": "uint8"
        }
      ],
      "stateMutability": "view",
      "type": "function",
      "constant": true
    },
    {
      "inputs": [
        {
          "internalType": "bytes32",
          "name": "role",
          "type": "bytes32"
        }
      ],
      "name": "getRoleAdmin",
      "outputs": [
        {
          "internalType": "bytes32",
          "name": "",
          "type": "bytes32"
        }
      ],
      "stateMutability": "view",
      "type": "function",
      "constant": true
    },
    {
      "inputs": [
        {
          "internalType": "bytes32",
          "name": "role",
          "type": "bytes32"
        },
        {
          "internalType": "uint256",
          "name": "index",
          "type": "uint256"
        }
      ],
      "name": "getRoleMember",
      "outputs": [
        {
          "internalType": "address",
          "name": "",
          "type": "address"
        }
      ],
      "stateMutability": "view",
      "type": "function",
      "constant": true
    },
    {
      "inputs": [
        {
          "internalType": "bytes32",
          "name": "role",
          "type": "bytes32"
        }
      ],
      "name": "getRoleMemberCount",
      "outputs": [
        {
          "internalType": "uint256",
          "name": "",
          "type": "uint256"
        }
      ],
      "stateMutability": "view",
      "type": "function",
      "constant": true
    },
    {
      "inputs": [
        {
          "internalType": "address[]",
          "name": "accounts",
          "type": "address[]"
        }
      ],
      "name": "grantKYC",
      "outputs": [],
      "stateMutability": "nonpayable",
      "type": "function"
    },
    {
      "inputs": [
        {
          "internalType": "bytes32",
          "name": "role",
          "type": "bytes32"
        },
        {
          "internalType": "address",
          "name": "account",
          "type": "address"
        }
      ],
      "name": "grantRole",
      "outputs": [],
      "stateMutability": "nonpayable",
      "type": "function"
    },
    {
      "inputs": [
        {
          "internalType": "bytes32",
          "name": "role",
          "type": "bytes32"
        },
        {
          "internalType": "address",
          "name": "account",
          "type": "address"
        }
      ],
      "name": "hasRole",
      "outputs": [
        {
          "internalType": "bool",
          "name": "",
          "type": "bool"
        }
      ],
      "stateMutability": "view",
      "type": "function",
      "constant": true
    },
    {
      "inputs": [
        {
          "internalType": "address",
          "name": "spender",
          "type": "address"
        },
        {
          "internalType": "uint256",
          "name": "addedValue",
          "type": "uint256"
        }
      ],
      "name": "increaseAllowance",
      "outputs": [
        {
          "internalType": "bool",
          "name": "",
          "type": "bool"
        }
      ],
      "stateMutability": "nonpayable",
      "type": "function"
    },
    {
      "inputs": [
        {
          "internalType": "address",
          "name": "account",
          "type": "address"
        }
      ],
      "name": "isKYC",
      "outputs": [
        {
          "internalType": "bool",
          "name": "",
          "type": "bool"
        }
      ],
      "stateMutability": "view",
      "type": "function",
      "constant": true
    },
    {
      "inputs": [
        {
          "internalType": "uint8",
          "name": "restrictionCode",
          "type": "uint8"
        }
      ],
      "name": "messageForTransferRestriction",
      "outputs": [
        {
          "internalType": "string",
          "name": "",
          "type": "string"
        }
      ],
      "stateMutability": "view",
      "type": "function",
      "constant": true
    },
    {
      "inputs": [],
      "name": "name",
      "outputs": [
        {
          "internalType": "string",
          "name": "",
          "type": "string"
        }
      ],
      "stateMutability": "view",
      "type": "function",
      "constant": true
    },
    {
      "inputs": [
        {
          "internalType": "bytes32",
          "name": "role",
          "type": "bytes32"
        },
        {
          "internalType": "address",
          "name": "account",
          "type": "address"
        }
      ],
      "name": "renounceRole",
      "outputs": [],
      "stateMutability": "nonpayable",
      "type": "function"
    },
    {
      "inputs": [
        {
          "internalType": "address[]",
          "name": "accounts",
          "type": "address[]"
        }
      ],
      "name": "revokeKYC",
      "outputs": [],
      "stateMutability": "nonpayable",
      "type": "function"
    },
    {
      "inputs": [
        {
          "internalType": "bytes32",
          "name": "role",
          "type": "bytes32"
        },
        {
          "internalType": "address",
          "name": "account",
          "type": "address"
        }
      ],
      "name": "revokeRole",
      "outputs": [],
      "stateMutability": "nonpayable",
      "type": "function"
    },
    {
      "inputs": [],
      "name": "snapshot",
      "outputs": [
        {
          "internalType": "uint256",
          "name": "",
          "type": "uint256"
        }
      ],
      "stateMutability": "nonpayable",
      "type": "function"
    },
    {
      "inputs": [],
      "name": "softCap",
      "outputs": [
        {
          "internalType": "uint256",
          "name": "",
          "type": "uint256"
        }
      ],
      "stateMutability": "view",
      "type": "function",
      "constant": true
    },
    {
      "inputs": [],
      "name": "softCapReached",
      "outputs": [
        {
          "internalType": "bool",
          "name": "",
          "type": "bool"
        }
      ],
      "stateMutability": "view",
      "type": "function",
      "constant": true
    },
    {
      "inputs": [],
      "name": "symbol",
      "outputs": [
        {
          "internalType": "string",
          "name": "",
          "type": "string"
        }
      ],
      "stateMutability": "view",
      "type": "function",
      "constant": true
    },
    {
      "inputs": [],
      "name": "totalSupply",
      "outputs": [
        {
          "internalType": "uint256",
          "name": "",
          "type": "uint256"
        }
      ],
      "stateMutability": "view",
      "type": "function",
      "constant": true
    },
    {
      "inputs": [
        {
          "internalType": "uint256",
          "name": "snapshotId",
          "type": "uint256"
        }
      ],
      "name": "totalSupplyAt",
      "outputs": [
        {
          "internalType": "uint256",
          "name": "",
          "type": "uint256"
        }
      ],
      "stateMutability": "view",
      "type": "function",
      "constant": true
    },
    {
      "inputs": [
        {
          "internalType": "address",
          "name": "recipient",
          "type": "address"
        },
        {
          "internalType": "uint256",
          "name": "amount",
          "type": "uint256"
        }
      ],
      "name": "transfer",
      "outputs": [
        {
          "internalType": "bool",
          "name": "",
          "type": "bool"
        }
      ],
      "stateMutability": "nonpayable",
      "type": "function"
    },
    {
      "inputs": [
        {
          "internalType": "address",
          "name": "receiver",
          "type": "address"
        },
        {
          "internalType": "uint256",
          "name": "amount",
          "type": "uint256"
        },
        {
          "internalType": "bytes",
          "name": "data",
          "type": "bytes"
        }
      ],
      "name": "transferAndCall",
      "outputs": [
        {
          "internalType": "bool",
          "name": "",
          "type": "bool"
        }
      ],
      "stateMutability": "nonpayable",
      "type": "function"
    },
    {
      "inputs": [
        {
          "internalType": "address",
          "name": "sender",
          "type": "address"
        },
        {
          "internalType": "address",
          "name": "recipient",
          "type": "address"
        },
        {
          "internalType": "uint256",
          "name": "amount",
          "type": "uint256"
        }
      ],
      "name": "transferFrom",
      "outputs": [
        {
          "internalType": "bool",
          "name": "",
          "type": "bool"
        }
      ],
      "stateMutability": "nonpayable",
      "type": "function"
    },
    {
      "inputs": [],
      "name": "underlyingToken",
      "outputs": [
        {
          "internalType": "contract IERC20",
          "name": "",
          "type": "address"
        }
      ],
      "stateMutability": "view",
      "type": "function",
      "constant": true
    },
    {
      "inputs": [
        {
          "internalType": "uint256",
          "name": "amount",
          "type": "uint256"
        }
      ],
      "name": "deposit",
      "outputs": [],
      "stateMutability": "nonpayable",
      "type": "function"
    },
    {
      "inputs": [
        {
          "internalType": "uint256",
          "name": "amount",
          "type": "uint256"
        }
      ],
      "name": "withdraw",
      "outputs": [],
      "stateMutability": "nonpayable",
      "type": "function"
    },
    {
      "inputs": [],
      "name": "recover",
      "outputs": [],
      "stateMutability": "nonpayable",
      "type": "function"
    },
    {
      "inputs": [
        {
          "internalType": "address",
          "name": "token",
          "type": "address"
        },
        {
          "internalType": "address",
          "name": "to",
          "type": "address"
        }
      ],
      "name": "claim",
      "outputs": [],
      "stateMutability": "nonpayable",
      "type": "function"
    },
    {
      "inputs": [
        {
          "internalType": "address",
          "name": "sender",
          "type": "address"
        },
        {
          "internalType": "uint256",
          "name": "amount",
          "type": "uint256"
        },
        {
          "internalType": "address",
          "name": "token",
          "type": "address"
        },
        {
          "internalType": "bytes",
          "name": "",
          "type": "bytes"
        }
      ],
      "name": "receiveApproval",
      "outputs": [
        {
          "internalType": "bool",
          "name": "",
          "type": "bool"
        }
      ],
      "stateMutability": "nonpayable",
      "type": "function"
    },
    {
      "inputs": [
        {
          "internalType": "address",
          "name": "sender",
          "type": "address"
        },
        {
          "internalType": "uint256",
          "name": "amount",
          "type": "uint256"
        },
        {
          "internalType": "bytes",
          "name": "",
          "type": "bytes"
        }
      ],
      "name": "onTokenTransfer",
      "outputs": [
        {
          "internalType": "bool",
          "name": "",
          "type": "bool"
        }
      ],
      "stateMutability": "nonpayable",
      "type": "function"
    }
  ],
  "bytecode": "0x60c06040523480156200001157600080fd5b506040516200310b3803806200310b833981810160405260c08110156200003757600080fd5b8151602083018051604051929492938301929190846401000000008211156200005f57600080fd5b9083019060208201858111156200007557600080fd5b82516401000000008111828201881017156200009057600080fd5b82525081516020918201929091019080838360005b83811015620000bf578181015183820152602001620000a5565b50505050905090810190601f168015620000ed5780820380516001836020036101000a031916815260200191505b50604052602001805160405193929190846401000000008211156200011157600080fd5b9083019060208201858111156200012757600080fd5b82516401000000008111828201881017156200014257600080fd5b82525081516020918201929091019080838360005b838110156200017157818101518382015260200162000157565b50505050905090810190601f1680156200019f5780820380516001836020036101000a031916815260200191505b50604081815260208301519201805192949193919284640100000000821115620001c857600080fd5b908301906020820185811115620001de57600080fd5b8251866020820283011164010000000082111715620001fc57600080fd5b82525081516020918201928201910280838360005b838110156200022b57818101518382015260200162000211565b50505050905001604052602001805160405193929190846401000000008211156200025557600080fd5b9083019060208201858111156200026b57600080fd5b82518660208202830111640100000000821117156200028957600080fd5b82525081516020918201928201910280838360005b83811015620002b85781810151838201526020016200029e565b50505050905001604052505050848484848482828287878160039080519060200190620002e7929190620005eb565b508051620002fd906004906020840190620005eb565b50506005805460ff1916601217905550620003487fce55f595624c86c7e93aa4cf15cb4a958406550ae728a9b7ffda71a7d62eca73600080516020620030eb8339815191526200046d565b60005b825181101562000387576200037e6000801b8483815181106200036a57fe5b6020026020010151620004bf60201b60201c565b6001016200034b565b5060005b8151811015620003bf57620003b6600080516020620030eb8339815191528383815181106200036a57fe5b6001016200038b565b50505060805250506007805460ff191690555050506001600160601b0319606087901b1660a0526040805163313ce56760e01b8152905162000461916001600160a01b0389169163313ce56791600480820192602092909190829003018186803b1580156200042d57600080fd5b505afa15801562000442573d6000803e3d6000fd5b505050506040513d60208110156200045957600080fd5b5051620004cf565b50505050505062000687565b600082815260066020526040808220600201549051839285917fbd79b86ffe0ab8e8776151514217cd7cacd52c909f66475c3af44e129f0b00ff9190a460009182526006602052604090912060020155565b620004cb8282620004e5565b5050565b6005805460ff191660ff92909216919091179055565b60008281526006602090815260409091206200050c9183906200176c62000560821b17901c565b15620004cb576200051c62000580565b6001600160a01b0316816001600160a01b0316837f2f8788117e7eff1d82e926ec794901d17c78024a50270940304540a733656f0d60405160405180910390a45050565b600062000577836001600160a01b03841662000584565b90505b92915050565b3390565b6000620005928383620005d3565b620005ca575081546001818101845560008481526020808220909301849055845484825282860190935260409020919091556200057a565b5060006200057a565b60009081526001919091016020526040902054151590565b828054600181600116156101000203166002900490600052602060002090601f016020900481019282601f106200062e57805160ff19168380011785556200065e565b828001600101855582156200065e579182015b828111156200065e57825182559160200191906001019062000641565b506200066c92915062000670565b5090565b5b808211156200066c576000815560010162000671565b60805160a05160601c612a1a620006d160003980610b0d5280610c42528061106c528061134a52806115dd5280611bc35280611ed252508061111852806123825250612a1a6000f3fe608060405234801561001057600080fd5b50600436106102485760003560e01c80637f4ab1dd1161013b578063a457c2d7116100b8578063cae9ca511161007c578063cae9ca51146108c7578063ce7460241461094a578063d4ce141514610952578063d547741f14610988578063dd62ed3e146109b457610248565b8063a457c2d7146107b2578063a4c0ed36146107de578063a9059cbb14610861578063b6b55f251461088d578063ca15c873146108aa57610248565b806395d89b41116100ff57806395d89b41146107575780639711715a1461075f578063981b24d0146107675780639944f51814610784578063a217fddf146107aa57610248565b80637f4ab1dd146106535780638f4ffcb1146106735780639010d07c14610700578063906a26e01461072357806391d148541461072b57610248565b80632b9edee9116101c9578063395093511161018d57806339509351146104e45780634000aea0146105105780634a4e629c146105935780634ee2cd7e1461060157806370a082311461062d57610248565b80632b9edee9146104495780632e1a7d4d146104515780632f2ff15d1461046e578063313ce5671461049a57806336568abe146104b857610248565b806321c0b3421161021057806321c0b3421461039c57806323b872dd146103ca578063248a9ca3146104005780632495a5991461041d57806327e9083b1461044157610248565b806302d7fd921461024d57806306fdde0314610267578063095ea7b3146102e457806318160ddd1461032457806318f33caf1461032c575b600080fd5b6102556109e2565b60408051918252519081900360200190f35b61026f610a06565b6040805160208082528351818301528351919283929083019185019080838360005b838110156102a9578181015183820152602001610291565b50505050905090810190601f1680156102d65780820380516001836020036101000a031916815260200191505b509250505060405180910390f35b610310600480360360408110156102fa57600080fd5b506001600160a01b038135169060200135610a9c565b604080519115158252519081900360200190f35b610255610aba565b61039a6004803603602081101561034257600080fd5b810190602081018135600160201b81111561035c57600080fd5b82018360208201111561036e57600080fd5b803590602001918460208302840111600160201b8311171561038f57600080fd5b509092509050610ac0565b005b61039a600480360360408110156103b257600080fd5b506001600160a01b0381358116916020013516610b0b565b610310600480360360608110156103e057600080fd5b506001600160a01b03813581169160208101359091169060400135610ba0565b6102556004803603602081101561041657600080fd5b5035610c28565b610425610c40565b604080516001600160a01b039092168252519081900360200190f35b610255610c64565b610310610c76565b61039a6004803603602081101561046757600080fd5b5035610c7f565b61039a6004803603604081101561048457600080fd5b50803590602001356001600160a01b0316610ca4565b6104a2610d0c565b6040805160ff9092168252519081900360200190f35b61039a600480360360408110156104ce57600080fd5b50803590602001356001600160a01b0316610d15565b610310600480360360408110156104fa57600080fd5b506001600160a01b038135169060200135610d76565b6103106004803603606081101561052657600080fd5b6001600160a01b0382351691602081013591810190606081016040820135600160201b81111561055557600080fd5b82018360208201111561056757600080fd5b803590602001918460018302840111600160201b8311171561058857600080fd5b509092509050610dc4565b61039a600480360360208110156105a957600080fd5b810190602081018135600160201b8111156105c357600080fd5b8201836020820111156105d557600080fd5b803590602001918460208302840111600160201b831117156105f657600080fd5b509092509050610eeb565b6102556004803603604081101561061757600080fd5b506001600160a01b038135169060200135610f31565b6102556004803603602081101561064357600080fd5b50356001600160a01b0316610f7a565b61026f6004803603602081101561066957600080fd5b503560ff16610f95565b6103106004803603608081101561068957600080fd5b6001600160a01b038235811692602081013592604082013590921691810190608081016060820135600160201b8111156106c257600080fd5b8201836020820111156106d457600080fd5b803590602001918460018302840111600160201b831117156106f557600080fd5b509092509050611068565b6104256004803603604081101561071657600080fd5b50803590602001356110fe565b610255611116565b6103106004803603604081101561074157600080fd5b50803590602001356001600160a01b031661113a565b61026f611152565b6102556111b3565b6102556004803603602081101561077d57600080fd5b503561128f565b6103106004803603602081101561079a57600080fd5b50356001600160a01b03166112bf565b6102556112d9565b610310600480360360408110156107c857600080fd5b506001600160a01b0381351690602001356112de565b610310600480360360608110156107f457600080fd5b6001600160a01b0382351691602081013591810190606081016040820135600160201b81111561082357600080fd5b82018360208201111561083557600080fd5b803590602001918460018302840111600160201b8311171561085657600080fd5b509092509050611346565b6103106004803603604081101561087757600080fd5b506001600160a01b0381351690602001356113ce565b61039a600480360360208110156108a357600080fd5b50356113e2565b610255600480360360208110156108c057600080fd5b5035611404565b610310600480360360608110156108dd57600080fd5b6001600160a01b0382351691602081013591810190606081016040820135600160201b81111561090c57600080fd5b82018360208201111561091e57600080fd5b803590602001918460018302840111600160201b8311171561093f57600080fd5b50909250905061141b565b61039a611548565b6104a26004803603606081101561096857600080fd5b506001600160a01b03813581169160208101359091169060400135611686565b61039a6004803603604081101561099e57600080fd5b50803590602001356001600160a01b03166116e8565b610255600480360360408110156109ca57600080fd5b506001600160a01b0381358116916020013516611741565b7f811427a0fa4932aef534bba16bc34e9b7b2d7d2a79c475fca1765f6cc1faebea81565b60038054604080516020601f6002600019610100600188161502019095169490940493840181900481028201810190925282815260609390929091830182828015610a925780601f10610a6757610100808354040283529160200191610a92565b820191906000526020600020905b815481529060010190602001808311610a7557829003601f168201915b5050505050905090565b6000610ab0610aa9611781565b8484611785565b5060015b92915050565b60025490565b60005b81811015610b0657610afe6000805160206128df833981519152848484818110610ae957fe5b905060200201356001600160a01b0316610ca4565b600101610ac3565b505050565b7f00000000000000000000000000000000000000000000000000000000000000006001600160a01b0316826001600160a01b03161415610b92576040805162461bcd60e51b815260206004820152601d60248201527f63616e6e6f742d636c61696d2d756e6465726c79696e672d746f6b656e000000604482015290519081900360640190fd5b610b9c8282611871565b5050565b6000610bad848484611910565b610c1d84610bb9611781565b610c18856040518060600160405280602881526020016128ff602891396001600160a01b038a16600090815260016020526040812090610bf7611781565b6001600160a01b031681526020810191909152604001600020549190611a6b565b611785565b5060015b9392505050565b6000818152600660205260409020600201545b919050565b7f000000000000000000000000000000000000000000000000000000000000000081565b6000805160206128df83398151915281565b60075460ff1681565b610c90610c8a611781565b82611ac5565b610ca1610c9b611781565b82611bc1565b50565b600082815260066020526040902060020154610cc790610cc2611781565b61113a565b610d025760405162461bcd60e51b815260040180806020018281038252602f815260200180612816602f913960400191505060405180910390fd5b610b9c8282611ca7565b60055460ff1690565b610d1d611781565b6001600160a01b0316816001600160a01b031614610d6c5760405162461bcd60e51b815260040180806020018281038252602f8152602001806129b6602f913960400191505060405180910390fd5b610b9c8282611d10565b6000610ab0610d83611781565b84610c188560016000610d94611781565b6001600160a01b03908116825260208083019390935260409182016000908120918c168152925290205490611d79565b6000610dd085856113ce565b50846001600160a01b031663a4c0ed36610de8611781565b8686866040518563ffffffff1660e01b815260040180856001600160a01b03168152602001848152602001806020018281038252848482818152602001925080828437600081840152601f19601f82011690508083019250505095505050505050602060405180830381600087803b158015610e6357600080fd5b505af1158015610e77573d6000803e3d6000fd5b505050506040513d6020811015610e8d57600080fd5b5051610ee0576040805162461bcd60e51b815260206004820152601c60248201527f7472616e736665722d726566757365642d62792d726563656976657200000000604482015290519081900360640190fd5b506001949350505050565b60005b81811015610b0657610f296000805160206128df833981519152848484818110610f1457fe5b905060200201356001600160a01b03166116e8565b600101610eee565b6001600160a01b038216600090815260086020526040812081908190610f58908590611dd3565b9150915081610f6f57610f6a85610f7a565b610f71565b805b95945050505050565b6001600160a01b031660009081526020819052604090205490565b606060ff821660011415610fd5575060408051808201909152601581527453656e646572206973206d697373696e67204b594360581b6020820152610c3b565b60ff82166002141561101b575060408051808201909152601781527f5265636569766572206973206d697373696e67204b59430000000000000000006020820152610c3b565b6040805162461bcd60e51b815260206004820152601860248201527f696e76616c69642d7265737472696374696f6e2d636f64650000000000000000604482015290519081900360640190fd5b60007f00000000000000000000000000000000000000000000000000000000000000006001600160a01b0316846001600160a01b0316146110de576040805162461bcd60e51b815260206004820152600b60248201526a3bb937b73396ba37b5b2b760a91b604482015290519081900360640190fd5b6110e88686611ed0565b6110f28686611fcb565b50600195945050505050565b6000828152600660205260408120610c219083611fd5565b7f000000000000000000000000000000000000000000000000000000000000000081565b6000828152600660205260408120610c219083611fe1565b60048054604080516020601f6002600019610100600188161502019095169490940493840181900481028201810190925282815260609390929091830182828015610a925780601f10610a6757610100808354040283529160200191610a92565b6000806111be611781565b604051806040016040528060138152602001723932b9ba3934b1ba32b216ba3796b0b236b4b760691b8152506111f4838361113a565b819061127e5760405162461bcd60e51b81526004018080602001828103825283818151815260200191508051906020019080838360005b8381101561124357818101518382015260200161122b565b50505050905090810190601f1680156112705780820380516001836020036101000a031916815260200191505b509250505060405180910390fd5b50611287611ff6565b935050505090565b600080600061129f846009611dd3565b91509150816112b5576112b0610aba565b6112b7565b805b949350505050565b6000610ab46000805160206128df8339815191528361113a565b600081565b6000610ab06112eb611781565b84610c18856040518060600160405280602581526020016129916025913960016000611315611781565b6001600160a01b03908116825260208083019390935260409182016000908120918d16815292529020549190611a6b565b60007f00000000000000000000000000000000000000000000000000000000000000006001600160a01b031661137a611781565b6001600160a01b0316146113c4576040805162461bcd60e51b815260206004820152600c60248201526b3bb937b73396b9b2b73232b960a11b604482015290519081900360640190fd5b610ee08585611fcb565b6000610ab06113db611781565b8484611910565b6113f36113ed611781565b82611ed0565b610ca16113fe611781565b82611fcb565b6000818152600660205260408120610ab49061204a565b60006114278585610a9c565b50846001600160a01b0316638f4ffcb161143f611781565b863087876040518663ffffffff1660e01b815260040180866001600160a01b03168152602001858152602001846001600160a01b03168152602001806020018281038252848482818152602001925080828437600081840152601f19601f8201169050808301925050509650505050505050602060405180830381600087803b1580156114cb57600080fd5b505af11580156114df573d6000803e3d6000fd5b505050506040513d60208110156114f557600080fd5b5051610ee0576040805162461bcd60e51b815260206004820152601c60248201527f617070726f76616c2d726566757365642d62792d726563656976657200000000604482015290519081900360640190fd5b6000611552611781565b6040518060400160405280600a81526020016937b7363c96b0b236b4b760b11b81525061157f838361113a565b81906115cc5760405162461bcd60e51b815260206004820181815283516024840152835190928392604490910191908501908083836000831561124357818101518382015260200161122b565b50610b066115d8611781565b6116817f00000000000000000000000000000000000000000000000000000000000000006001600160a01b03166370a08231306040518263ffffffff1660e01b815260040180826001600160a01b0316815260200191505060206040518083038186803b15801561164857600080fd5b505afa15801561165c573d6000803e3d6000fd5b505050506040513d602081101561167257600080fd5b505161167c610aba565b612055565b611fcb565b60006001600160a01b038416158015906116a657506116a4846112bf565b155b156116b357506001610c21565b6001600160a01b038316158015906116d157506116cf836112bf565b155b156116de57506002610c21565b5060009392505050565b60008281526006602052604090206002015461170690610cc2611781565b610d6c5760405162461bcd60e51b81526004018080602001828103825260308152602001806128af6030913960400191505060405180910390fd5b6001600160a01b03918216600090815260016020908152604080832093909416825291909152205490565b6000610c21836001600160a01b038416612097565b3390565b6001600160a01b0383166117ca5760405162461bcd60e51b815260040180806020018281038252602481526020018061296d6024913960400191505060405180910390fd5b6001600160a01b03821661180f5760405162461bcd60e51b81526004018080602001828103825260228152602001806128676022913960400191505060405180910390fd5b6001600160a01b03808416600081815260016020908152604080832094871680845294825291829020859055815185815291517f8c5be1e5ebec7d5bd14f71427d1e84f3dd0314c0f7b2291e5b200ac8c7c3b9259281900390910190a3505050565b600061187b611781565b604051806040016040528060138152602001723932b9ba3934b1ba32b216ba3796b0b236b4b760691b8152506118b1838361113a565b81906118fe5760405162461bcd60e51b815260206004820181815283516024840152835190928392604490910191908501908083836000831561124357818101518382015260200161122b565b5061190985856120e1565b5050505050565b6001600160a01b0383166119555760405162461bcd60e51b81526004018080602001828103825260258152602001806129486025913960400191505060405180910390fd5b6001600160a01b03821661199a5760405162461bcd60e51b81526004018080602001828103825260238152602001806127f36023913960400191505060405180910390fd5b6119a5838383612298565b6119e281604051806060016040528060268152602001612889602691396001600160a01b0386166000908152602081905260409020549190611a6b565b6001600160a01b038085166000908152602081905260408082209390935590841681522054611a119082611d79565b6001600160a01b038084166000818152602081815260409182902094909455805185815290519193928716927fddf252ad1be2c89b69c2b068fc378daa952ba7f163c4a11628f55a4df523b3ef92918290030190a3505050565b60008184841115611abd5760405162461bcd60e51b815260206004820181815283516024840152835190928392604490910191908501908083836000831561124357818101518382015260200161122b565b505050900390565b6001600160a01b038216611b0a5760405162461bcd60e51b81526004018080602001828103825260218152602001806129276021913960400191505060405180910390fd5b611b1682600083612298565b611b5381604051806060016040528060228152602001612845602291396001600160a01b0385166000908152602081905260409020549190611a6b565b6001600160a01b038316600090815260208190526040902055600254611b799082612055565b6002556040805182815290516000916001600160a01b038516917fddf252ad1be2c89b69c2b068fc378daa952ba7f163c4a11628f55a4df523b3ef9181900360200190a35050565b7f00000000000000000000000000000000000000000000000000000000000000006001600160a01b031663a9059cbb83836040518363ffffffff1660e01b815260040180836001600160a01b0316815260200182815260200192505050602060405180830381600087803b158015611c3857600080fd5b505af1158015611c4c573d6000803e3d6000fd5b505050506040513d6020811015611c6257600080fd5b5051610b9c576040805162461bcd60e51b815260206004820152600f60248201526e3330b4b632b216ba3930b739b332b960891b604482015290519081900360640190fd5b6000828152600660205260409020611cbf908261176c565b15610b9c57611ccc611781565b6001600160a01b0316816001600160a01b0316837f2f8788117e7eff1d82e926ec794901d17c78024a50270940304540a733656f0d60405160405180910390a45050565b6000828152600660205260409020611d2890826122ae565b15610b9c57611d35611781565b6001600160a01b0316816001600160a01b0316837ff6391f5c32d9c69d2a47ea670b442974b53935d1edc7fd64eb21e047a839171b60405160405180910390a45050565b600082820183811015610c21576040805162461bcd60e51b815260206004820152601b60248201527f536166654d6174683a206164646974696f6e206f766572666c6f770000000000604482015290519081900360640190fd5b60008060008411611e24576040805162461bcd60e51b815260206004820152601660248201527504552433230536e617073686f743a20696420697320360541b604482015290519081900360640190fd5b611e2e600b6122c3565b841115611e82576040805162461bcd60e51b815260206004820152601d60248201527f4552433230536e617073686f743a206e6f6e6578697374656e74206964000000604482015290519081900360640190fd5b6000611e8e84866122c7565b8454909150811415611ea7576000809250925050611ec9565b6001846001018281548110611eb857fe5b906000526020600020015492509250505b9250929050565b7f00000000000000000000000000000000000000000000000000000000000000006001600160a01b03166323b872dd8330846040518463ffffffff1660e01b815260040180846001600160a01b03168152602001836001600160a01b031681526020018281526020019350505050602060405180830381600087803b158015611f5857600080fd5b505af1158015611f6c573d6000803e3d6000fd5b505050506040513d6020811015611f8257600080fd5b5051610b9c576040805162461bcd60e51b81526020600482015260136024820152726661696c65642d7472616e7366657246726f6d60681b604482015290519081900360640190fd5b610b9c8282612368565b6000610c2183836123eb565b6000610c21836001600160a01b03841661244f565b6000612002600b612467565b600061200e600b6122c3565b6040805182815290519192507f8030e83b04d87bef53480e26263266d6ca66863aa8506aca6f2559d18aa1cb67919081900360200190a1905090565b6000610ab4826122c3565b6000610c2183836040518060400160405280601e81526020017f536166654d6174683a207375627472616374696f6e206f766572666c6f770000815250611a6b565b60006120a3838361244f565b6120d957508154600181810184556000848152602080822090930184905584548482528286019093526040902091909155610ab4565b506000610ab4565b6001600160a01b038216612190576040516000906001600160a01b0383169047908381818185875af1925050503d806000811461213a576040519150601f19603f3d011682016040523d82523d6000602084013e61213f565b606091505b505090508061218a576040805162461bcd60e51b81526020600482015260126024820152710cae4e4dee45ac6d8c2d2dad2dcce5acae8d60731b604482015290519081900360640190fd5b50610b9c565b816001600160a01b031663a9059cbb82846001600160a01b03166370a08231306040518263ffffffff1660e01b815260040180826001600160a01b0316815260200191505060206040518083038186803b1580156121ed57600080fd5b505afa158015612201573d6000803e3d6000fd5b505050506040513d602081101561221757600080fd5b5051604080516001600160e01b031960e086901b1681526001600160a01b03909316600484015260248301919091525160448083019260209291908290030181600087803b15801561226857600080fd5b505af115801561227c573d6000803e3d6000fd5b505050506040513d602081101561229257600080fd5b50505050565b6122a3838383612470565b610b068383836124c8565b6000610c21836001600160a01b03841661253b565b5490565b81546000906122d857506000610ab4565b82546000905b808210156123275760006122f28383612601565b90508486828154811061230157fe5b9060005260206000200154111561231a57809150612321565b8060010192505b506122de565b60008211801561234f57508385600184038154811061234257fe5b9060005260206000200154145b156123605750600019019050610ab4565b509050610ab4565b6123728282612626565b60075460ff161580156123ac57507f00000000000000000000000000000000000000000000000000000000000000006123a9610aba565b10155b15610b9c576007805460ff191660011790556040517f629c1b672a634075c61f1cbfbec5f3e47b94c3f90f065486f615ecfa18713d3490600090a15050565b8154600090821061242d5760405162461bcd60e51b81526004018080602001828103825260228152602001806127d16022913960400191505060405180910390fd5b82600001828154811061243c57fe5b9060005260206000200154905092915050565b60009081526001919091016020526040902054151590565b80546001019055565b61247b8383836124c8565b6001600160a01b03831661249f5761249282612716565b61249a612740565b610b06565b6001600160a01b0382166124b65761249283612716565b6124bf83612716565b610b0682612716565b60006124d5848484611686565b905060ff811615612530576124e981610f95565b60405162461bcd60e51b815260206004820181815283516024840152835190928392604490910191908501908083836000831561124357818101518382015260200161122b565b612292848484610b06565b600081815260018301602052604081205480156125f7578354600019808301919081019060009087908390811061256e57fe5b906000526020600020015490508087600001848154811061258b57fe5b6000918252602080832090910192909255828152600189810190925260409020908401905586548790806125bb57fe5b60019003818190600052602060002001600090559055866001016000878152602001908152602001600020600090556001945050505050610ab4565b6000915050610ab4565b6000600280830660028506018161261457fe5b04600283046002850401019392505050565b6001600160a01b038216612681576040805162461bcd60e51b815260206004820152601f60248201527f45524332303a206d696e7420746f20746865207a65726f206164647265737300604482015290519081900360640190fd5b61268d60008383612298565b60025461269a9082611d79565b6002556001600160a01b0382166000908152602081905260409020546126c09082611d79565b6001600160a01b0383166000818152602081815260408083209490945583518581529351929391927fddf252ad1be2c89b69c2b068fc378daa952ba7f163c4a11628f55a4df523b3ef9281900390910190a35050565b6001600160a01b0381166000908152600860205260409020610ca19061273b83610f7a565b61274f565b61274d600961273b610aba565b565b600061275b600b6122c3565b9050806127678461279b565b1015610b06578254600180820185556000858152602080822090930193909355938401805494850181558252902090910155565b80546000906127ac57506000610c3b565b8154829060001981019081106127be57fe5b90600052602060002001549050610c3b56fe456e756d657261626c655365743a20696e646578206f7574206f6620626f756e647345524332303a207472616e7366657220746f20746865207a65726f2061646472657373416363657373436f6e74726f6c3a2073656e646572206d75737420626520616e2061646d696e20746f206772616e7445524332303a206275726e20616d6f756e7420657863656564732062616c616e636545524332303a20617070726f766520746f20746865207a65726f206164647265737345524332303a207472616e7366657220616d6f756e7420657863656564732062616c616e6365416363657373436f6e74726f6c3a2073656e646572206d75737420626520616e2061646d696e20746f207265766f6b65ce55f595624c86c7e93aa4cf15cb4a958406550ae728a9b7ffda71a7d62eca7345524332303a207472616e7366657220616d6f756e74206578636565647320616c6c6f77616e636545524332303a206275726e2066726f6d20746865207a65726f206164647265737345524332303a207472616e736665722066726f6d20746865207a65726f206164647265737345524332303a20617070726f76652066726f6d20746865207a65726f206164647265737345524332303a2064656372656173656420616c6c6f77616e63652062656c6f77207a65726f416363657373436f6e74726f6c3a2063616e206f6e6c792072656e6f756e636520726f6c657320666f722073656c66a26469706673582212200bdf37d41822eba6dda1553620e47d1a95740647f93a5f02484029937554c41064736f6c634300060c0033811427a0fa4932aef534bba16bc34e9b7b2d7d2a79c475fca1765f6cc1faebea",
  "immutableReferences": {
    "201": [
      {
        "length": 32,
        "start": 4376
      },
      {
        "length": 32,
        "start": 9090
      }
    ],
    "714": [
      {
        "length": 32,
        "start": 2829
      },
      {
        "length": 32,
        "start": 3138
      },
      {
        "length": 32,
        "start": 4204
      },
      {
        "length": 32,
        "start": 4938
      },
      {
        "length": 32,
        "start": 5597
      },
      {
        "length": 32,
        "start": 7107
      },
      {
        "length": 32,
        "start": 7890
      }
    ]
  },
  "source": "// SPDX-License-Identifier: Apache-2.0\n\n/******************************************************************************\n * Copyright 2020 IEXEC BLOCKCHAIN TECH                                       *\n *                                                                            *\n * Licensed under the Apache License, Version 2.0 (the \"License\");            *\n * you may not use this file except in compliance with the License.           *\n * You may obtain a copy of the License at                                    *\n *                                                                            *\n *     http://www.apache.org/licenses/LICENSE-2.0                             *\n *                                                                            *\n * Unless required by applicable law or agreed to in writing, software        *\n * distributed under the License is distributed on an \"AS IS\" BASIS,          *\n * WITHOUT WARRANTIES OR CONDITIONS OF ANY KIND, either express or implied.   *\n * See the License for the specific language governing permissions and        *\n * limitations under the License.                                             *\n ******************************************************************************/\n\npragma solidity ^0.6.0;\n\nimport \"./interfaces/IERC677.sol\";\nimport \"./ERLC.sol\";\n\n\ncontract ERLCSwap is ERLC, IERC677Receiver\n{\n    IERC20 public immutable underlyingToken;\n\n    constructor(\n        address          underlyingtoken,\n        string    memory name,\n        string    memory symbol,\n        uint256          softcap,\n        address[] memory admins,\n        address[] memory kycadmins)\n    public\n    ERLC(name, symbol, softcap, admins, kycadmins)\n    {\n        underlyingToken = IERC20(underlyingtoken);\n        _setupDecimals(ERC20(underlyingtoken).decimals());\n    }\n\n    /*************************************************************************\n     *                       Escrow - public interface                       *\n     *************************************************************************/\n    function deposit(uint256 amount)\n    public\n    {\n        _deposit(_msgSender(), amount);\n        _mint(_msgSender(), amount);\n    }\n\n    function withdraw(uint256 amount)\n    public\n    {\n        _burn(_msgSender(), amount);\n        _withdraw(_msgSender(), amount);\n    }\n\n    function recover()\n    public\n    onlyRole(DEFAULT_ADMIN_ROLE, _msgSender(), \"only-admin\")\n    {\n        _mint(_msgSender(), SafeMath.sub(underlyingToken.balanceOf(address(this)), totalSupply()));\n    }\n\n    function claim(address token, address to)\n    public virtual override\n    {\n        require(token != address(underlyingToken), \"cannot-claim-underlying-token\");\n        super.claim(token, to);\n    }\n\n    /*************************************************************************\n     *            ERC677Receiver - One-transaction ERC20 deposits            *\n     *************************************************************************/\n    function receiveApproval(address sender, uint256 amount, address token, bytes calldata)\n    public override returns (bool)\n    {\n        require(token == address(underlyingToken), \"wrong-token\");\n        _deposit(sender, amount);\n        _mint(sender, amount);\n        return true;\n    }\n\n    function onTokenTransfer(address sender, uint256 amount, bytes calldata)\n    public override returns (bool)\n    {\n        require(_msgSender() == address(underlyingToken), \"wrong-sender\");\n        _mint(sender, amount);\n        return true;\n    }\n\n    /*************************************************************************\n     *                      Escrow - internal functions                      *\n     *************************************************************************/\n    function _deposit(address from, uint256 amount)\n    internal\n    {\n        require(underlyingToken.transferFrom(from, address(this), amount), \"failed-transferFrom\");\n    }\n\n    function _withdraw(address to, uint256 amount)\n    internal\n    {\n        require(underlyingToken.transfer(to, amount), \"failed-transfer\");\n    }\n}\n",
  "sourcePath": "/home/amxx/Work/iExec/code/eRCL/contracts/ERLCSwap.sol",
  "compiler": {
    "name": "solc",
    "version": "0.6.12+commit.27d51765.Emscripten.clang"
  },
  "schemaVersion": "3.2.2",
  "updatedAt": "2020-11-16T18:02:56.394Z",
  "networkType": "ethereum",
  "devdoc": {
    "kind": "dev",
    "methods": {
      "allowance(address,address)": {
        "details": "See {IERC20-allowance}."
      },
      "approve(address,uint256)": {
        "details": "See {IERC20-approve}. Requirements: - `spender` cannot be the zero address."
      },
      "balanceOf(address)": {
        "details": "See {IERC20-balanceOf}."
      },
      "balanceOfAt(address,uint256)": {
        "details": "Retrieves the balance of `account` at the time `snapshotId` was created."
      },
      "decimals()": {
        "details": "Returns the number of decimals used to get its user representation. For example, if `decimals` equals `2`, a balance of `505` tokens should be displayed to a user as `5,05` (`505 / 10 ** 2`). Tokens usually opt for a value of 18, imitating the relationship between Ether and Wei. This is the value {ERC20} uses, unless {_setupDecimals} is called. NOTE: This information is only used for _display_ purposes: it in no way affects any of the arithmetic of the contract, including {IERC20-balanceOf} and {IERC20-transfer}."
      },
      "decreaseAllowance(address,uint256)": {
        "details": "Atomically decreases the allowance granted to `spender` by the caller. This is an alternative to {approve} that can be used as a mitigation for problems described in {IERC20-approve}. Emits an {Approval} event indicating the updated allowance. Requirements: - `spender` cannot be the zero address. - `spender` must have allowance for the caller of at least `subtractedValue`."
      },
      "getRoleAdmin(bytes32)": {
        "details": "Returns the admin role that controls `role`. See {grantRole} and {revokeRole}. To change a role's admin, use {_setRoleAdmin}."
      },
      "getRoleMember(bytes32,uint256)": {
        "details": "Returns one of the accounts that have `role`. `index` must be a value between 0 and {getRoleMemberCount}, non-inclusive. Role bearers are not sorted in any particular way, and their ordering may change at any point. WARNING: When using {getRoleMember} and {getRoleMemberCount}, make sure you perform all queries on the same block. See the following https://forum.openzeppelin.com/t/iterating-over-elements-on-enumerableset-in-openzeppelin-contracts/2296[forum post] for more information."
      },
      "getRoleMemberCount(bytes32)": {
        "details": "Returns the number of accounts that have `role`. Can be used together with {getRoleMember} to enumerate all bearers of a role."
      },
      "grantRole(bytes32,address)": {
        "details": "Grants `role` to `account`. If `account` had not been already granted `role`, emits a {RoleGranted} event. Requirements: - the caller must have ``role``'s admin role."
      },
      "hasRole(bytes32,address)": {
        "details": "Returns `true` if `account` has been granted `role`."
      },
      "increaseAllowance(address,uint256)": {
        "details": "Atomically increases the allowance granted to `spender` by the caller. This is an alternative to {approve} that can be used as a mitigation for problems described in {IERC20-approve}. Emits an {Approval} event indicating the updated allowance. Requirements: - `spender` cannot be the zero address."
      },
      "name()": {
        "details": "Returns the name of the token."
      },
      "renounceRole(bytes32,address)": {
        "details": "Revokes `role` from the calling account. Roles are often managed via {grantRole} and {revokeRole}: this function's purpose is to provide a mechanism for accounts to lose their privileges if they are compromised (such as when a trusted device is misplaced). If the calling account had been granted `role`, emits a {RoleRevoked} event. Requirements: - the caller must be `account`."
      },
      "revokeRole(bytes32,address)": {
        "details": "Revokes `role` from `account`. If `account` had been granted `role`, emits a {RoleRevoked} event. Requirements: - the caller must have ``role``'s admin role."
      },
      "symbol()": {
        "details": "Returns the symbol of the token, usually a shorter version of the name."
      },
      "totalSupply()": {
        "details": "See {IERC20-totalSupply}."
      },
      "totalSupplyAt(uint256)": {
        "details": "Retrieves the total supply at the time `snapshotId` was created."
      },
      "transfer(address,uint256)": {
        "details": "See {IERC20-transfer}. Requirements: - `recipient` cannot be the zero address. - the caller must have a balance of at least `amount`."
      },
      "transferFrom(address,address,uint256)": {
        "details": "See {IERC20-transferFrom}. Emits an {Approval} event indicating the updated allowance. This is not required by the EIP. See the note at the beginning of {ERC20}; Requirements: - `sender` and `recipient` cannot be the zero address. - `sender` must have a balance of at least `amount`. - the caller must have allowance for ``sender``'s tokens of at least `amount`."
      }
    },
    "version": 1
  },
  "userdoc": {
    "kind": "user",
    "methods": {},
    "version": 1
  }
}